{
  "_format": "hh-sol-artifact-1",
  "contractName": "GCoin",
  "sourceName": "contracts/GCoin.sol",
  "abi": [
    {
      "inputs": [],
      "stateMutability": "nonpayable",
      "type": "constructor"
    },
    {
      "anonymous": false,
      "inputs": [
        {
          "indexed": true,
          "internalType": "address",
          "name": "owner",
          "type": "address"
        },
        {
          "indexed": true,
          "internalType": "address",
          "name": "spender",
          "type": "address"
        },
        {
          "indexed": false,
          "internalType": "uint256",
          "name": "value",
          "type": "uint256"
        }
      ],
      "name": "Approval",
      "type": "event"
    },
    {
      "anonymous": false,
      "inputs": [
        {
          "indexed": true,
          "internalType": "address",
          "name": "user",
          "type": "address"
        },
        {
          "indexed": false,
          "internalType": "string",
          "name": "reason",
          "type": "string"
        }
      ],
      "name": "Blacklisted",
      "type": "event"
    },
    {
      "anonymous": false,
      "inputs": [
        {
          "indexed": false,
          "internalType": "bool",
          "name": "required",
          "type": "bool"
        }
      ],
      "name": "KYCGateToggled",
      "type": "event"
    },
    {
      "anonymous": false,
      "inputs": [
        {
          "indexed": true,
          "internalType": "address",
          "name": "user",
          "type": "address"
        }
      ],
      "name": "KYCRevoked",
      "type": "event"
    },
    {
      "anonymous": false,
      "inputs": [
        {
          "indexed": true,
          "internalType": "address",
          "name": "user",
          "type": "address"
        }
      ],
      "name": "KYCVerified",
      "type": "event"
    },
    {
      "anonymous": false,
      "inputs": [
        {
          "indexed": false,
          "internalType": "uint256",
          "name": "newMaxSupply",
          "type": "uint256"
        }
      ],
      "name": "MaxSupplyUpdated",
      "type": "event"
    },
    {
      "anonymous": false,
      "inputs": [
        {
          "indexed": false,
          "internalType": "uint256",
          "name": "newMin",
          "type": "uint256"
        }
      ],
      "name": "MinRedeemUpdated",
      "type": "event"
    },
    {
      "anonymous": false,
      "inputs": [
        {
          "indexed": true,
          "internalType": "address",
          "name": "to",
          "type": "address"
        },
        {
          "indexed": false,
          "internalType": "uint256",
          "name": "amount",
          "type": "uint256"
        },
        {
          "indexed": false,
          "internalType": "string",
          "name": "orderId",
          "type": "string"
        }
      ],
      "name": "Minted",
      "type": "event"
    },
    {
      "anonymous": false,
      "inputs": [
        {
          "indexed": true,
          "internalType": "address",
          "name": "previousOwner",
          "type": "address"
        },
        {
          "indexed": true,
          "internalType": "address",
          "name": "newOwner",
          "type": "address"
        }
      ],
      "name": "OwnershipTransferred",
      "type": "event"
    },
    {
      "anonymous": false,
      "inputs": [
        {
          "indexed": false,
          "internalType": "address",
          "name": "account",
          "type": "address"
        }
      ],
      "name": "Paused",
      "type": "event"
    },
    {
      "anonymous": false,
      "inputs": [
        {
          "indexed": true,
          "internalType": "address",
          "name": "user",
          "type": "address"
        },
        {
          "indexed": false,
          "internalType": "uint256",
          "name": "amount",
          "type": "uint256"
        },
        {
          "indexed": false,
          "internalType": "bytes32",
          "name": "redeemId",
          "type": "bytes32"
        }
      ],
      "name": "Redeemed",
      "type": "event"
    },
    {
      "anonymous": false,
      "inputs": [
        {
          "indexed": true,
          "internalType": "address",
          "name": "from",
          "type": "address"
        },
        {
          "indexed": true,
          "internalType": "address",
          "name": "to",
          "type": "address"
        },
        {
          "indexed": false,
          "internalType": "uint256",
          "name": "value",
          "type": "uint256"
        }
      ],
      "name": "Transfer",
      "type": "event"
    },
    {
      "anonymous": false,
      "inputs": [
        {
          "indexed": true,
          "internalType": "address",
          "name": "newTreasury",
          "type": "address"
        }
      ],
      "name": "TreasuryUpdated",
      "type": "event"
    },
    {
      "anonymous": false,
      "inputs": [
        {
          "indexed": true,
          "internalType": "address",
          "name": "user",
          "type": "address"
        }
      ],
      "name": "UnBlacklisted",
      "type": "event"
    },
    {
      "anonymous": false,
      "inputs": [
        {
          "indexed": false,
          "internalType": "address",
          "name": "account",
          "type": "address"
        }
      ],
      "name": "Unpaused",
      "type": "event"
    },
    {
      "inputs": [],
      "name": "ABSOLUTE_MAX_SUPPLY",
      "outputs": [
        {
          "internalType": "uint256",
          "name": "",
          "type": "uint256"
        }
      ],
      "stateMutability": "view",
      "type": "function"
    },
    {
      "inputs": [
        {
          "internalType": "address",
          "name": "owner",
          "type": "address"
        },
        {
          "internalType": "address",
          "name": "spender",
          "type": "address"
        }
      ],
      "name": "allowance",
      "outputs": [
        {
          "internalType": "uint256",
          "name": "",
          "type": "uint256"
        }
      ],
      "stateMutability": "view",
      "type": "function"
    },
    {
      "inputs": [
        {
          "internalType": "address",
          "name": "spender",
          "type": "address"
        },
        {
          "internalType": "uint256",
          "name": "amount",
          "type": "uint256"
        }
      ],
      "name": "approve",
      "outputs": [
        {
          "internalType": "bool",
          "name": "",
          "type": "bool"
        }
      ],
      "stateMutability": "nonpayable",
      "type": "function"
    },
    {
      "inputs": [
        {
          "internalType": "address",
          "name": "account",
          "type": "address"
        }
      ],
      "name": "balanceOf",
      "outputs": [
        {
          "internalType": "uint256",
          "name": "",
          "type": "uint256"
        }
      ],
      "stateMutability": "view",
      "type": "function"
    },
    {
      "inputs": [
        {
          "internalType": "address",
          "name": "user",
          "type": "address"
        },
        {
          "internalType": "string",
          "name": "reason",
          "type": "string"
        }
      ],
      "name": "blacklist",
      "outputs": [],
      "stateMutability": "nonpayable",
      "type": "function"
    },
    {
      "inputs": [
        {
          "internalType": "address",
          "name": "",
          "type": "address"
        }
      ],
      "name": "blacklisted",
      "outputs": [
        {
          "internalType": "bool",
          "name": "",
          "type": "bool"
        }
      ],
      "stateMutability": "view",
      "type": "function"
    },
    {
      "inputs": [],
      "name": "decimals",
      "outputs": [
        {
          "internalType": "uint8",
          "name": "",
          "type": "uint8"
        }
      ],
      "stateMutability": "pure",
      "type": "function"
    },
    {
      "inputs": [
        {
          "internalType": "address",
          "name": "spender",
          "type": "address"
        },
        {
          "internalType": "uint256",
          "name": "subtractedValue",
          "type": "uint256"
        }
      ],
      "name": "decreaseAllowance",
      "outputs": [
        {
          "internalType": "bool",
          "name": "",
          "type": "bool"
        }
      ],
      "stateMutability": "nonpayable",
      "type": "function"
    },
    {
      "inputs": [
        {
          "internalType": "address",
          "name": "spender",
          "type": "address"
        },
        {
          "internalType": "uint256",
          "name": "addedValue",
          "type": "uint256"
        }
      ],
      "name": "increaseAllowance",
      "outputs": [
        {
          "internalType": "bool",
          "name": "",
          "type": "bool"
        }
      ],
      "stateMutability": "nonpayable",
      "type": "function"
    },
    {
      "inputs": [
        {
          "internalType": "string",
          "name": "orderId",
          "type": "string"
        }
      ],
      "name": "isOrderProcessed",
      "outputs": [
        {
          "internalType": "bool",
          "name": "",
          "type": "bool"
        }
      ],
      "stateMutability": "view",
      "type": "function"
    },
    {
      "inputs": [
        {
          "internalType": "bytes32",
          "name": "redeemId",
          "type": "bytes32"
        }
      ],
      "name": "isRedeemProcessed",
      "outputs": [
        {
          "internalType": "bool",
          "name": "",
          "type": "bool"
        }
      ],
      "stateMutability": "view",
      "type": "function"
    },
    {
      "inputs": [],
      "name": "kycRequired",
      "outputs": [
        {
          "internalType": "bool",
          "name": "",
          "type": "bool"
        }
      ],
      "stateMutability": "view",
      "type": "function"
    },
    {
      "inputs": [
        {
          "internalType": "address",
          "name": "",
          "type": "address"
        }
      ],
      "name": "kycVerified",
      "outputs": [
        {
          "internalType": "bool",
          "name": "",
          "type": "bool"
        }
      ],
      "stateMutability": "view",
      "type": "function"
    },
    {
      "inputs": [],
      "name": "maxSupply",
      "outputs": [
        {
          "internalType": "uint256",
          "name": "",
          "type": "uint256"
        }
      ],
      "stateMutability": "view",
      "type": "function"
    },
    {
      "inputs": [],
      "name": "minRedeemAmount",
      "outputs": [
        {
          "internalType": "uint256",
          "name": "",
          "type": "uint256"
        }
      ],
      "stateMutability": "view",
      "type": "function"
    },
    {
      "inputs": [
        {
          "internalType": "address",
          "name": "to",
          "type": "address"
        },
        {
          "internalType": "uint256",
          "name": "amount",
          "type": "uint256"
        },
        {
          "internalType": "string",
          "name": "orderId",
          "type": "string"
        }
      ],
      "name": "mint",
      "outputs": [],
      "stateMutability": "nonpayable",
      "type": "function"
    },
    {
      "inputs": [
        {
          "internalType": "address[]",
          "name": "recipients",
          "type": "address[]"
        },
        {
          "internalType": "uint256[]",
          "name": "amounts",
          "type": "uint256[]"
        },
        {
          "internalType": "string[]",
          "name": "orderIds",
          "type": "string[]"
        }
      ],
      "name": "mintBatch",
      "outputs": [],
      "stateMutability": "nonpayable",
      "type": "function"
    },
    {
      "inputs": [],
      "name": "name",
      "outputs": [
        {
          "internalType": "string",
          "name": "",
          "type": "string"
        }
      ],
      "stateMutability": "view",
      "type": "function"
    },
    {
      "inputs": [],
      "name": "owner",
      "outputs": [
        {
          "internalType": "address",
          "name": "",
          "type": "address"
        }
      ],
      "stateMutability": "view",
      "type": "function"
    },
    {
      "inputs": [],
      "name": "pause",
      "outputs": [],
      "stateMutability": "nonpayable",
      "type": "function"
    },
    {
      "inputs": [],
      "name": "paused",
      "outputs": [
        {
          "internalType": "bool",
          "name": "",
          "type": "bool"
        }
      ],
      "stateMutability": "view",
      "type": "function"
    },
    {
      "inputs": [
        {
          "internalType": "string",
          "name": "",
          "type": "string"
        }
      ],
      "name": "processedOrders",
      "outputs": [
        {
          "internalType": "bool",
          "name": "",
          "type": "bool"
        }
      ],
      "stateMutability": "view",
      "type": "function"
    },
    {
      "inputs": [
        {
          "internalType": "bytes32",
          "name": "",
          "type": "bytes32"
        }
      ],
      "name": "processedRedeems",
      "outputs": [
        {
          "internalType": "bool",
          "name": "",
          "type": "bool"
        }
      ],
      "stateMutability": "view",
      "type": "function"
    },
    {
      "inputs": [
        {
          "internalType": "uint256",
          "name": "amount",
          "type": "uint256"
        },
        {
          "internalType": "bytes32",
          "name": "redeemId",
          "type": "bytes32"
        }
      ],
      "name": "redeem",
      "outputs": [],
      "stateMutability": "nonpayable",
      "type": "function"
    },
    {
      "inputs": [],
      "name": "remainingSupply",
      "outputs": [
        {
          "internalType": "uint256",
          "name": "",
          "type": "uint256"
        }
      ],
      "stateMutability": "view",
      "type": "function"
    },
    {
      "inputs": [],
      "name": "renounceOwnership",
      "outputs": [],
      "stateMutability": "nonpayable",
      "type": "function"
    },
    {
      "inputs": [
        {
          "internalType": "address",
          "name": "user",
          "type": "address"
        }
      ],
      "name": "revokeKYC",
      "outputs": [],
      "stateMutability": "nonpayable",
      "type": "function"
    },
    {
      "inputs": [
        {
          "internalType": "bool",
          "name": "required",
          "type": "bool"
        }
      ],
      "name": "setKYCRequired",
      "outputs": [],
      "stateMutability": "nonpayable",
      "type": "function"
    },
    {
      "inputs": [
        {
          "internalType": "uint256",
          "name": "newMax",
          "type": "uint256"
        }
      ],
      "name": "setMaxSupply",
      "outputs": [],
      "stateMutability": "nonpayable",
      "type": "function"
    },
    {
      "inputs": [
        {
          "internalType": "uint256",
          "name": "newMin",
          "type": "uint256"
        }
      ],
      "name": "setMinRedeemAmount",
      "outputs": [],
      "stateMutability": "nonpayable",
      "type": "function"
    },
    {
      "inputs": [
        {
          "internalType": "address",
          "name": "_treasury",
          "type": "address"
        }
      ],
      "name": "setTreasury",
      "outputs": [],
      "stateMutability": "nonpayable",
      "type": "function"
    },
    {
      "inputs": [],
      "name": "symbol",
      "outputs": [
        {
          "internalType": "string",
          "name": "",
          "type": "string"
        }
      ],
      "stateMutability": "view",
      "type": "function"
    },
    {
      "inputs": [
        {
          "internalType": "uint256",
          "name": "units",
          "type": "uint256"
        }
      ],
      "name": "toRupees",
      "outputs": [
        {
          "internalType": "uint256",
          "name": "",
          "type": "uint256"
        }
      ],
      "stateMutability": "pure",
      "type": "function"
    },
    {
      "inputs": [],
      "name": "totalSupply",
      "outputs": [
        {
          "internalType": "uint256",
          "name": "",
          "type": "uint256"
        }
      ],
      "stateMutability": "view",
      "type": "function"
    },
    {
      "inputs": [
        {
          "internalType": "address",
          "name": "to",
          "type": "address"
        },
        {
          "internalType": "uint256",
          "name": "amount",
          "type": "uint256"
        }
      ],
      "name": "transfer",
      "outputs": [
        {
          "internalType": "bool",
          "name": "",
          "type": "bool"
        }
      ],
      "stateMutability": "nonpayable",
      "type": "function"
    },
    {
      "inputs": [
        {
          "internalType": "address",
          "name": "from",
          "type": "address"
        },
        {
          "internalType": "address",
          "name": "to",
          "type": "address"
        },
        {
          "internalType": "uint256",
          "name": "amount",
          "type": "uint256"
        }
      ],
      "name": "transferFrom",
      "outputs": [
        {
          "internalType": "bool",
          "name": "",
          "type": "bool"
        }
      ],
      "stateMutability": "nonpayable",
      "type": "function"
    },
    {
      "inputs": [
        {
          "internalType": "address",
          "name": "newOwner",
          "type": "address"
        }
      ],
      "name": "transferOwnership",
      "outputs": [],
      "stateMutability": "nonpayable",
      "type": "function"
    },
    {
      "inputs": [],
      "name": "treasury",
      "outputs": [
        {
          "internalType": "address",
          "name": "",
          "type": "address"
        }
      ],
      "stateMutability": "view",
      "type": "function"
    },
    {
      "inputs": [
        {
          "internalType": "address",
          "name": "user",
          "type": "address"
        }
      ],
      "name": "unBlacklist",
      "outputs": [],
      "stateMutability": "nonpayable",
      "type": "function"
    },
    {
      "inputs": [],
      "name": "unpause",
      "outputs": [],
      "stateMutability": "nonpayable",
      "type": "function"
    },
    {
      "inputs": [
        {
          "internalType": "address",
          "name": "user",
          "type": "address"
        }
      ],
      "name": "verifyKYC",
      "outputs": [],
      "stateMutability": "nonpayable",
      "type": "function"
    }
  ],
  "bytecode": "0x60806040526402540be4006007556103e86008556000600960006101000a81548160ff0219169083151502179055503480156200003b57600080fd5b506040518060400160405280600581526020017f47436f696e0000000000000000000000000000000000000000000000000000008152506040518060400160405280600381526020017f47434e00000000000000000000000000000000000000000000000000000000008152508160039081620000b9919062000498565b508060049081620000cb919062000498565b505050620000ee620000e26200015060201b60201c565b6200015860201b60201c565b6000600560146101000a81548160ff02191690831515021790555033600660006101000a81548173ffffffffffffffffffffffffffffffffffffffff021916908373ffffffffffffffffffffffffffffffffffffffff1602179055506200057f565b600033905090565b6000600560009054906101000a900473ffffffffffffffffffffffffffffffffffffffff16905081600560006101000a81548173ffffffffffffffffffffffffffffffffffffffff021916908373ffffffffffffffffffffffffffffffffffffffff1602179055508173ffffffffffffffffffffffffffffffffffffffff168173ffffffffffffffffffffffffffffffffffffffff167f8be0079c531659141344cd1fd0a4f28419497f9722a3daafe3b4186f6b6457e060405160405180910390a35050565b600081519050919050565b7f4e487b7100000000000000000000000000000000000000000000000000000000600052604160045260246000fd5b7f4e487b7100000000000000000000000000000000000000000000000000000000600052602260045260246000fd5b60006002820490506001821680620002a057607f821691505b602082108103620002b657620002b562000258565b5b50919050565b60008190508160005260206000209050919050565b60006020601f8301049050919050565b600082821b905092915050565b600060088302620003207fffffffffffffffffffffffffffffffffffffffffffffffffffffffffffffffff82620002e1565b6200032c8683620002e1565b95508019841693508086168417925050509392505050565b6000819050919050565b6000819050919050565b600062000379620003736200036d8462000344565b6200034e565b62000344565b9050919050565b6000819050919050565b620003958362000358565b620003ad620003a48262000380565b848454620002ee565b825550505050565b600090565b620003c4620003b5565b620003d18184846200038a565b505050565b5b81811015620003f957620003ed600082620003ba565b600181019050620003d7565b5050565b601f82111562000448576200041281620002bc565b6200041d84620002d1565b810160208510156200042d578190505b620004456200043c85620002d1565b830182620003d6565b50505b505050565b600082821c905092915050565b60006200046d600019846008026200044d565b1980831691505092915050565b60006200048883836200045a565b9150826002028217905092915050565b620004a3826200021e565b67ffffffffffffffff811115620004bf57620004be62000229565b5b620004cb825462000287565b620004d8828285620003fd565b600060209050601f831160018114620005105760008415620004fb578287015190505b6200050785826200047a565b86555062000577565b601f1984166200052086620002bc565b60005b828110156200054a5784890151825560018201915060208501945060208101905062000523565b868310156200056a578489015162000566601f8916826200045a565b8355505b6001600288020188555050505b505050505050565b61465b806200058f6000396000f3fe608060405234801561001057600080fd5b50600436106102535760003560e01c806370a0823111610146578063b9699091116100c3578063dbac26e911610087578063dbac26e9146106fe578063dd62ed3e1461072e578063ddf579ff1461075e578063e86131fa1461077a578063f0f4426014610796578063f2fde38b146107b257610253565b8063b969909114610658578063cc82d7be14610676578063d3fc9864146106a6578063d5abeb01146106c2578063da0239a6146106e057610253565b806395d89b411161010a57806395d89b411461057a578063a457c2d714610598578063a5410a66146105c8578063a9059cbb146105f8578063b3bcb5101461062857610253565b806370a08231146104fc578063715018a61461052c5780638456cb59146105365780638da5cb5b1461054057806392315df71461055e57610253565b806338d16011116101d45780633f4ba83a116101985780633f4ba83a1461046a5780635bb2f4e2146104745780635c975abb146104a457806361d027b3146104c25780636f8b44b0146104e057610253565b806338d16011146103b657806339509351146103d257806339ba645b146104025780633d116e261461041e5780633e3679d31461044e57610253565b80631a8952661161021b5780631a8952661461031257806322e4e61d1461032e57806323b872dd1461034a5780632b0fcbb51461037a578063313ce5671461039857610253565b806306fdde03146102585780630912ae6d14610276578063095ea7b31461029457806316fbdd7f146102c457806318160ddd146102f4575b600080fd5b6102606107ce565b60405161026d9190612b56565b60405180910390f35b61027e610860565b60405161028b9190612b91565b60405180910390f35b6102ae60048036038101906102a99190612c4a565b610866565b6040516102bb9190612ca5565b60405180910390f35b6102de60048036038101906102d99190612cf6565b610889565b6040516102eb9190612ca5565b60405180910390f35b6102fc6108a9565b6040516103099190612b91565b60405180910390f35b61032c60048036038101906103279190612d23565b6108b3565b005b61034860048036038101906103439190612d50565b610959565b005b610364600480360381019061035f9190612d90565b610c03565b6040516103719190612ca5565b60405180910390f35b610382610c32565b60405161038f9190612b91565b60405180910390f35b6103a0610c3b565b6040516103ad9190612dff565b60405180910390f35b6103d060048036038101906103cb9190612d23565b610c44565b005b6103ec60048036038101906103e79190612c4a565b610cea565b6040516103f99190612ca5565b60405180910390f35b61041c60048036038101906104179190612d23565b610d21565b005b61043860048036038101906104339190612f4f565b610dc7565b6040516104459190612ca5565b60405180910390f35b61046860048036038101906104639190612f98565b610dfd565b005b610472610e89565b005b61048e60048036038101906104899190612cf6565b610e9b565b60405161049b9190612ca5565b60405180910390f35b6104ac610ec5565b6040516104b99190612ca5565b60405180910390f35b6104ca610edc565b6040516104d79190612fd4565b60405180910390f35b6104fa60048036038101906104f59190612f98565b610f02565b005b61051660048036038101906105119190612d23565b610fd7565b6040516105239190612b91565b60405180910390f35b61053461101f565b005b61053e611033565b005b610548611045565b6040516105559190612fd4565b60405180910390f35b610578600480360381019061057391906130fb565b61106f565b005b61058261163c565b60405161058f9190612b56565b60405180910390f35b6105b260048036038101906105ad9190612c4a565b6116ce565b6040516105bf9190612ca5565b60405180910390f35b6105e260048036038101906105dd9190612d23565b611745565b6040516105ef9190612ca5565b60405180910390f35b610612600480360381019061060d9190612c4a565b611765565b60405161061f9190612ca5565b60405180910390f35b610642600480360381019061063d9190612f98565b611788565b60405161064f9190612b91565b60405180910390f35b61066061179e565b60405161066d9190612ca5565b60405180910390f35b610690600480360381019061068b9190613205565b6117b1565b60405161069d9190612ca5565b60405180910390f35b6106c060048036038101906106bb9190613252565b6117e9565b005b6106ca611b32565b6040516106d79190612b91565b60405180910390f35b6106e8611b38565b6040516106f59190612b91565b60405180910390f35b61071860048036038101906107139190612d23565b611b54565b6040516107259190612ca5565b60405180910390f35b610748600480360381019061074391906132c6565b611b74565b6040516107559190612b91565b60405180910390f35b61077860048036038101906107739190613306565b611bfb565b005b610794600480360381019061078f9190613392565b611cb0565b005b6107b060048036038101906107ab9190612d23565b611d0c565b005b6107cc60048036038101906107c79190612d23565b611e0a565b005b6060600380546107dd906133ee565b80601f0160208091040260200160405190810160405280929190818152602001828054610809906133ee565b80156108565780601f1061082b57610100808354040283529160200191610856565b820191906000526020600020905b81548152906001019060200180831161083957829003601f168201915b5050505050905090565b60085481565b600080610871611e8d565b905061087e818585611e95565b600191505092915050565b600d6020528060005260406000206000915054906101000a900460ff1681565b6000600254905090565b6108bb61205e565b6000600a60008373ffffffffffffffffffffffffffffffffffffffff1673ffffffffffffffffffffffffffffffffffffffff16815260200190815260200160002060006101000a81548160ff0219169083151502179055508073ffffffffffffffffffffffffffffffffffffffff167f117e3210bb9aa7d9baff172026820255c6f6c30ba8999d1c2fd88e2848137c4e60405160405180910390a250565b60085482101561099e576040517f08c379a00000000000000000000000000000000000000000000000000000000081526004016109959061346b565b60405180910390fd5b600a60003373ffffffffffffffffffffffffffffffffffffffff1673ffffffffffffffffffffffffffffffffffffffff16815260200190815260200160002060009054906101000a900460ff1615610a2b576040517f08c379a0000000000000000000000000000000000000000000000000000000008152600401610a22906134d7565b60405180910390fd5b81610a3533610fd7565b1015610a76576040517f08c379a0000000000000000000000000000000000000000000000000000000008152600401610a6d90613543565b60405180910390fd5b600d600082815260200190815260200160002060009054906101000a900460ff1615610ad7576040517f08c379a0000000000000000000000000000000000000000000000000000000008152600401610ace906135af565b60405180910390fd5b600960009054906101000a900460ff1615610b7957600b60003373ffffffffffffffffffffffffffffffffffffffff1673ffffffffffffffffffffffffffffffffffffffff16815260200190815260200160002060009054906101000a900460ff16610b78576040517f08c379a0000000000000000000000000000000000000000000000000000000008152600401610b6f9061361b565b60405180910390fd5b5b6001600d600083815260200190815260200160002060006101000a81548160ff021916908315150217905550610baf33836120dc565b3373ffffffffffffffffffffffffffffffffffffffff167f3be2edea458ae9d9dd885a96aa23c988b15277ec0f613d273e6fcc4a27e610ff8383604051610bf792919061364a565b60405180910390a25050565b600080610c0e611e8d565b9050610c1b8582856122a9565b610c26858585612335565b60019150509392505050565b64174876e80081565b60006002905090565b610c4c61205e565b6001600b60008373ffffffffffffffffffffffffffffffffffffffff1673ffffffffffffffffffffffffffffffffffffffff16815260200190815260200160002060006101000a81548160ff0219169083151502179055508073ffffffffffffffffffffffffffffffffffffffff167f65c84ee842eafc291d1272a6e3d10f8c454c4288e63f5db3f7be2b3012f321a960405160405180910390a250565b600080610cf5611e8d565b9050610d16818585610d078589611b74565b610d1191906136a2565b611e95565b600191505092915050565b610d2961205e565b6000600b60008373ffffffffffffffffffffffffffffffffffffffff1673ffffffffffffffffffffffffffffffffffffffff16815260200190815260200160002060006101000a81548160ff0219169083151502179055508073ffffffffffffffffffffffffffffffffffffffff167ffb4ca6a2470de95e9f648557fae63380f22c4b760bd27b0571caf5977a30278a60405160405180910390a250565b600c818051602081018201805184825260208301602085012081835280955050505050506000915054906101000a900460ff1681565b610e0561205e565b60008111610e48576040517f08c379a0000000000000000000000000000000000000000000000000000000008152600401610e3f90613722565b60405180910390fd5b806008819055507f3532948396933a43f3c050ef9284d7221c005bb723bd8acd7d30e31b87119eee81604051610e7e9190612b91565b60405180910390a150565b610e9161205e565b610e996125ab565b565b6000600d600083815260200190815260200160002060009054906101000a900460ff169050919050565b6000600560149054906101000a900460ff16905090565b600660009054906101000a900473ffffffffffffffffffffffffffffffffffffffff1681565b610f0a61205e565b6007548111610f4e576040517f08c379a0000000000000000000000000000000000000000000000000000000008152600401610f45906137b4565b60405180910390fd5b64174876e800811115610f96576040517f08c379a0000000000000000000000000000000000000000000000000000000008152600401610f8d90613820565b60405180910390fd5b806007819055507f7810bd47de260c3e9ee10061cf438099dd12256c79485f12f94dbccc981e806c81604051610fcc9190612b91565b60405180910390a150565b60008060008373ffffffffffffffffffffffffffffffffffffffff1673ffffffffffffffffffffffffffffffffffffffff168152602001908152602001600020549050919050565b61102761205e565b611031600061260e565b565b61103b61205e565b6110436126d4565b565b6000600560009054906101000a900473ffffffffffffffffffffffffffffffffffffffff16905090565b61107761205e565b6000868690509050848490508114801561109357508282905081145b6110d2576040517f08c379a00000000000000000000000000000000000000000000000000000000081526004016110c99061388c565b60405180910390fd5b6064811115611116576040517f08c379a000000000000000000000000000000000000000000000000000000000815260040161110d906138f8565b60405180910390fd5b600080600090505b828110156111605786868281811061113957611138613918565b5b905060200201358261114b91906136a2565b9150808061115890613947565b91505061111e565b506007548161116d6108a9565b61117791906136a2565b11156111b8576040517f08c379a00000000000000000000000000000000000000000000000000000000081526004016111af906139db565b60405180910390fd5b60005b8281101561163157600073ffffffffffffffffffffffffffffffffffffffff168989838181106111ee576111ed613918565b5b90506020020160208101906112039190612d23565b73ffffffffffffffffffffffffffffffffffffffff1603611259576040517f08c379a000000000000000000000000000000000000000000000000000000000815260040161125090613a47565b60405180910390fd5b600087878381811061126e5761126d613918565b5b90506020020135116112b5576040517f08c379a00000000000000000000000000000000000000000000000000000000081526004016112ac90613ab3565b60405180910390fd5b600a60008a8a848181106112cc576112cb613918565b5b90506020020160208101906112e19190612d23565b73ffffffffffffffffffffffffffffffffffffffff1673ffffffffffffffffffffffffffffffffffffffff16815260200190815260200160002060009054906101000a900460ff1615611369576040517f08c379a000000000000000000000000000000000000000000000000000000000815260040161136090613b1f565b60405180910390fd5b600c85858381811061137e5761137d613918565b5b90506020028101906113909190613b4e565b60405161139e929190613be1565b908152602001604051809103902060009054906101000a900460ff16156113fa576040517f08c379a00000000000000000000000000000000000000000000000000000000081526004016113f190613c46565b60405180910390fd5b600960009054906101000a900460ff16156114c357600b60008a8a8481811061142657611425613918565b5b905060200201602081019061143b9190612d23565b73ffffffffffffffffffffffffffffffffffffffff1673ffffffffffffffffffffffffffffffffffffffff16815260200190815260200160002060009054906101000a900460ff166114c2576040517f08c379a00000000000000000000000000000000000000000000000000000000081526004016114b990613cd8565b60405180910390fd5b5b6001600c8686848181106114da576114d9613918565b5b90506020028101906114ec9190613b4e565b6040516114fa929190613be1565b908152602001604051809103902060006101000a81548160ff02191690831515021790555061156989898381811061153557611534613918565b5b905060200201602081019061154a9190612d23565b88888481811061155d5761155c613918565b5b90506020020135612737565b88888281811061157c5761157b613918565b5b90506020020160208101906115919190612d23565b73ffffffffffffffffffffffffffffffffffffffff167fe7cd4ce7f2a465edc730269a1305e8a48bad821e8fb7e152ec413829c01a53c48888848181106115db576115da613918565b5b905060200201358787858181106115f5576115f4613918565b5b90506020028101906116079190613b4e565b60405161161693929190613d25565b60405180910390a2808061162990613947565b9150506111bb565b505050505050505050565b60606004805461164b906133ee565b80601f0160208091040260200160405190810160405280929190818152602001828054611677906133ee565b80156116c45780601f10611699576101008083540402835291602001916116c4565b820191906000526020600020905b8154815290600101906020018083116116a757829003601f168201915b5050505050905090565b6000806116d9611e8d565b905060006116e78286611b74565b90508381101561172c576040517f08c379a000000000000000000000000000000000000000000000000000000000815260040161172390613dc9565b60405180910390fd5b6117398286868403611e95565b60019250505092915050565b600b6020528060005260406000206000915054906101000a900460ff1681565b600080611770611e8d565b905061177d818585612335565b600191505092915050565b60006064826117979190613e18565b9050919050565b600960009054906101000a900460ff1681565b6000600c83836040516117c5929190613be1565b908152602001604051809103902060009054906101000a900460ff16905092915050565b6117f161205e565b600073ffffffffffffffffffffffffffffffffffffffff168473ffffffffffffffffffffffffffffffffffffffff1603611860576040517f08c379a000000000000000000000000000000000000000000000000000000000815260040161185790613a47565b60405180910390fd5b600083116118a3576040517f08c379a000000000000000000000000000000000000000000000000000000000815260040161189a90613ab3565b60405180910390fd5b600a60008573ffffffffffffffffffffffffffffffffffffffff1673ffffffffffffffffffffffffffffffffffffffff16815260200190815260200160002060009054906101000a900460ff1615611930576040517f08c379a000000000000000000000000000000000000000000000000000000000815260040161192790613b1f565b60405180910390fd5b6007548361193c6108a9565b61194691906136a2565b1115611987576040517f08c379a000000000000000000000000000000000000000000000000000000000815260040161197e906139db565b60405180910390fd5b600c8282604051611999929190613be1565b908152602001604051809103902060009054906101000a900460ff16156119f5576040517f08c379a00000000000000000000000000000000000000000000000000000000081526004016119ec90613c46565b60405180910390fd5b600960009054906101000a900460ff1615611a9757600b60008573ffffffffffffffffffffffffffffffffffffffff1673ffffffffffffffffffffffffffffffffffffffff16815260200190815260200160002060009054906101000a900460ff16611a96576040517f08c379a0000000000000000000000000000000000000000000000000000000008152600401611a8d90613cd8565b60405180910390fd5b5b6001600c8383604051611aab929190613be1565b908152602001604051809103902060006101000a81548160ff021916908315150217905550611ada8484612737565b8373ffffffffffffffffffffffffffffffffffffffff167fe7cd4ce7f2a465edc730269a1305e8a48bad821e8fb7e152ec413829c01a53c4848484604051611b2493929190613d25565b60405180910390a250505050565b60075481565b6000611b426108a9565b600754611b4f9190613e49565b905090565b600a6020528060005260406000206000915054906101000a900460ff1681565b6000600160008473ffffffffffffffffffffffffffffffffffffffff1673ffffffffffffffffffffffffffffffffffffffff16815260200190815260200160002060008373ffffffffffffffffffffffffffffffffffffffff1673ffffffffffffffffffffffffffffffffffffffff16815260200190815260200160002054905092915050565b611c0361205e565b6001600a60008573ffffffffffffffffffffffffffffffffffffffff1673ffffffffffffffffffffffffffffffffffffffff16815260200190815260200160002060006101000a81548160ff0219169083151502179055508273ffffffffffffffffffffffffffffffffffffffff167f71ffd5b2f7b305f2f756c161455e2951077ed1951f9ecbee6252949bc1e13c5a8383604051611ca3929190613e7d565b60405180910390a2505050565b611cb861205e565b80600960006101000a81548160ff0219169083151502179055507fc1c553f91a4107bab741baece99f98545f08d71b34eb1db9bf14dfc281fba8c981604051611d019190612ca5565b60405180910390a150565b611d1461205e565b600073ffffffffffffffffffffffffffffffffffffffff168173ffffffffffffffffffffffffffffffffffffffff1603611d83576040517f08c379a0000000000000000000000000000000000000000000000000000000008152600401611d7a90613a47565b60405180910390fd5b80600660006101000a81548173ffffffffffffffffffffffffffffffffffffffff021916908373ffffffffffffffffffffffffffffffffffffffff1602179055508073ffffffffffffffffffffffffffffffffffffffff167f7dae230f18360d76a040c81f050aa14eb9d6dc7901b20fc5d855e2a20fe814d160405160405180910390a250565b611e1261205e565b600073ffffffffffffffffffffffffffffffffffffffff168173ffffffffffffffffffffffffffffffffffffffff1603611e81576040517f08c379a0000000000000000000000000000000000000000000000000000000008152600401611e7890613f13565b60405180910390fd5b611e8a8161260e565b50565b600033905090565b600073ffffffffffffffffffffffffffffffffffffffff168373ffffffffffffffffffffffffffffffffffffffff1603611f04576040517f08c379a0000000000000000000000000000000000000000000000000000000008152600401611efb90613fa5565b60405180910390fd5b600073ffffffffffffffffffffffffffffffffffffffff168273ffffffffffffffffffffffffffffffffffffffff1603611f73576040517f08c379a0000000000000000000000000000000000000000000000000000000008152600401611f6a90614037565b60405180910390fd5b80600160008573ffffffffffffffffffffffffffffffffffffffff1673ffffffffffffffffffffffffffffffffffffffff16815260200190815260200160002060008473ffffffffffffffffffffffffffffffffffffffff1673ffffffffffffffffffffffffffffffffffffffff168152602001908152602001600020819055508173ffffffffffffffffffffffffffffffffffffffff168373ffffffffffffffffffffffffffffffffffffffff167f8c5be1e5ebec7d5bd14f71427d1e84f3dd0314c0f7b2291e5b200ac8c7c3b925836040516120519190612b91565b60405180910390a3505050565b612066611e8d565b73ffffffffffffffffffffffffffffffffffffffff16612084611045565b73ffffffffffffffffffffffffffffffffffffffff16146120da576040517f08c379a00000000000000000000000000000000000000000000000000000000081526004016120d1906140a3565b60405180910390fd5b565b600073ffffffffffffffffffffffffffffffffffffffff168273ffffffffffffffffffffffffffffffffffffffff160361214b576040517f08c379a000000000000000000000000000000000000000000000000000000000815260040161214290614135565b60405180910390fd5b6121578260008361288d565b60008060008473ffffffffffffffffffffffffffffffffffffffff1673ffffffffffffffffffffffffffffffffffffffff168152602001908152602001600020549050818110156121dd576040517f08c379a00000000000000000000000000000000000000000000000000000000081526004016121d4906141c7565b60405180910390fd5b8181036000808573ffffffffffffffffffffffffffffffffffffffff1673ffffffffffffffffffffffffffffffffffffffff1681526020019081526020016000208190555081600260008282540392505081905550600073ffffffffffffffffffffffffffffffffffffffff168373ffffffffffffffffffffffffffffffffffffffff167fddf252ad1be2c89b69c2b068fc378daa952ba7f163c4a11628f55a4df523b3ef846040516122909190612b91565b60405180910390a36122a483600084612a29565b505050565b60006122b58484611b74565b90507fffffffffffffffffffffffffffffffffffffffffffffffffffffffffffffffff811461232f5781811015612321576040517f08c379a000000000000000000000000000000000000000000000000000000000815260040161231890614233565b60405180910390fd5b61232e8484848403611e95565b5b50505050565b600073ffffffffffffffffffffffffffffffffffffffff168373ffffffffffffffffffffffffffffffffffffffff16036123a4576040517f08c379a000000000000000000000000000000000000000000000000000000000815260040161239b906142c5565b60405180910390fd5b600073ffffffffffffffffffffffffffffffffffffffff168273ffffffffffffffffffffffffffffffffffffffff1603612413576040517f08c379a000000000000000000000000000000000000000000000000000000000815260040161240a90614357565b60405180910390fd5b61241e83838361288d565b60008060008573ffffffffffffffffffffffffffffffffffffffff1673ffffffffffffffffffffffffffffffffffffffff168152602001908152602001600020549050818110156124a4576040517f08c379a000000000000000000000000000000000000000000000000000000000815260040161249b906143e9565b60405180910390fd5b8181036000808673ffffffffffffffffffffffffffffffffffffffff1673ffffffffffffffffffffffffffffffffffffffff16815260200190815260200160002081905550816000808573ffffffffffffffffffffffffffffffffffffffff1673ffffffffffffffffffffffffffffffffffffffff168152602001908152602001600020600082825401925050819055508273ffffffffffffffffffffffffffffffffffffffff168473ffffffffffffffffffffffffffffffffffffffff167fddf252ad1be2c89b69c2b068fc378daa952ba7f163c4a11628f55a4df523b3ef846040516125929190612b91565b60405180910390a36125a5848484612a29565b50505050565b6125b3612a2e565b6000600560146101000a81548160ff0219169083151502179055507f5db9ee0a495bf2e6ff9c91a7834c1ba4fdd244a5e8aa4e537bd38aeae4b073aa6125f7611e8d565b6040516126049190612fd4565b60405180910390a1565b6000600560009054906101000a900473ffffffffffffffffffffffffffffffffffffffff16905081600560006101000a81548173ffffffffffffffffffffffffffffffffffffffff021916908373ffffffffffffffffffffffffffffffffffffffff1602179055508173ffffffffffffffffffffffffffffffffffffffff168173ffffffffffffffffffffffffffffffffffffffff167f8be0079c531659141344cd1fd0a4f28419497f9722a3daafe3b4186f6b6457e060405160405180910390a35050565b6126dc612a77565b6001600560146101000a81548160ff0219169083151502179055507f62e78cea01bee320cd4e420270b5ea74000d11b0c9f74754ebdbfc544b05a258612720611e8d565b60405161272d9190612fd4565b60405180910390a1565b600073ffffffffffffffffffffffffffffffffffffffff168273ffffffffffffffffffffffffffffffffffffffff16036127a6576040517f08c379a000000000000000000000000000000000000000000000000000000000815260040161279d90614455565b60405180910390fd5b6127b26000838361288d565b80600260008282546127c491906136a2565b92505081905550806000808473ffffffffffffffffffffffffffffffffffffffff1673ffffffffffffffffffffffffffffffffffffffff168152602001908152602001600020600082825401925050819055508173ffffffffffffffffffffffffffffffffffffffff16600073ffffffffffffffffffffffffffffffffffffffff167fddf252ad1be2c89b69c2b068fc378daa952ba7f163c4a11628f55a4df523b3ef836040516128759190612b91565b60405180910390a361288960008383612a29565b5050565b612895612a77565b600073ffffffffffffffffffffffffffffffffffffffff168373ffffffffffffffffffffffffffffffffffffffff161461295757600a60008473ffffffffffffffffffffffffffffffffffffffff1673ffffffffffffffffffffffffffffffffffffffff16815260200190815260200160002060009054906101000a900460ff1615612956576040517f08c379a000000000000000000000000000000000000000000000000000000000815260040161294d906144c1565b60405180910390fd5b5b600073ffffffffffffffffffffffffffffffffffffffff168273ffffffffffffffffffffffffffffffffffffffff1614612a1957600a60008373ffffffffffffffffffffffffffffffffffffffff1673ffffffffffffffffffffffffffffffffffffffff16815260200190815260200160002060009054906101000a900460ff1615612a18576040517f08c379a0000000000000000000000000000000000000000000000000000000008152600401612a0f9061452d565b60405180910390fd5b5b612a24838383612ac1565b505050565b505050565b612a36610ec5565b612a75576040517f08c379a0000000000000000000000000000000000000000000000000000000008152600401612a6c90614599565b60405180910390fd5b565b612a7f610ec5565b15612abf576040517f08c379a0000000000000000000000000000000000000000000000000000000008152600401612ab690614605565b60405180910390fd5b565b505050565b600081519050919050565b600082825260208201905092915050565b60005b83811015612b00578082015181840152602081019050612ae5565b60008484015250505050565b6000601f19601f8301169050919050565b6000612b2882612ac6565b612b328185612ad1565b9350612b42818560208601612ae2565b612b4b81612b0c565b840191505092915050565b60006020820190508181036000830152612b708184612b1d565b905092915050565b6000819050919050565b612b8b81612b78565b82525050565b6000602082019050612ba66000830184612b82565b92915050565b6000604051905090565b600080fd5b600080fd5b600073ffffffffffffffffffffffffffffffffffffffff82169050919050565b6000612beb82612bc0565b9050919050565b612bfb81612be0565b8114612c0657600080fd5b50565b600081359050612c1881612bf2565b92915050565b612c2781612b78565b8114612c3257600080fd5b50565b600081359050612c4481612c1e565b92915050565b60008060408385031215612c6157612c60612bb6565b5b6000612c6f85828601612c09565b9250506020612c8085828601612c35565b9150509250929050565b60008115159050919050565b612c9f81612c8a565b82525050565b6000602082019050612cba6000830184612c96565b92915050565b6000819050919050565b612cd381612cc0565b8114612cde57600080fd5b50565b600081359050612cf081612cca565b92915050565b600060208284031215612d0c57612d0b612bb6565b5b6000612d1a84828501612ce1565b91505092915050565b600060208284031215612d3957612d38612bb6565b5b6000612d4784828501612c09565b91505092915050565b60008060408385031215612d6757612d66612bb6565b5b6000612d7585828601612c35565b9250506020612d8685828601612ce1565b9150509250929050565b600080600060608486031215612da957612da8612bb6565b5b6000612db786828701612c09565b9350506020612dc886828701612c09565b9250506040612dd986828701612c35565b9150509250925092565b600060ff82169050919050565b612df981612de3565b82525050565b6000602082019050612e146000830184612df0565b92915050565b600080fd5b600080fd5b7f4e487b7100000000000000000000000000000000000000000000000000000000600052604160045260246000fd5b612e5c82612b0c565b810181811067ffffffffffffffff82111715612e7b57612e7a612e24565b5b80604052505050565b6000612e8e612bac565b9050612e9a8282612e53565b919050565b600067ffffffffffffffff821115612eba57612eb9612e24565b5b612ec382612b0c565b9050602081019050919050565b82818337600083830152505050565b6000612ef2612eed84612e9f565b612e84565b905082815260208101848484011115612f0e57612f0d612e1f565b5b612f19848285612ed0565b509392505050565b600082601f830112612f3657612f35612e1a565b5b8135612f46848260208601612edf565b91505092915050565b600060208284031215612f6557612f64612bb6565b5b600082013567ffffffffffffffff811115612f8357612f82612bbb565b5b612f8f84828501612f21565b91505092915050565b600060208284031215612fae57612fad612bb6565b5b6000612fbc84828501612c35565b91505092915050565b612fce81612be0565b82525050565b6000602082019050612fe96000830184612fc5565b92915050565b600080fd5b600080fd5b60008083601f84011261300f5761300e612e1a565b5b8235905067ffffffffffffffff81111561302c5761302b612fef565b5b60208301915083602082028301111561304857613047612ff4565b5b9250929050565b60008083601f84011261306557613064612e1a565b5b8235905067ffffffffffffffff81111561308257613081612fef565b5b60208301915083602082028301111561309e5761309d612ff4565b5b9250929050565b60008083601f8401126130bb576130ba612e1a565b5b8235905067ffffffffffffffff8111156130d8576130d7612fef565b5b6020830191508360208202830111156130f4576130f3612ff4565b5b9250929050565b6000806000806000806060878903121561311857613117612bb6565b5b600087013567ffffffffffffffff81111561313657613135612bbb565b5b61314289828a01612ff9565b9650965050602087013567ffffffffffffffff81111561316557613164612bbb565b5b61317189828a0161304f565b9450945050604087013567ffffffffffffffff81111561319457613193612bbb565b5b6131a089828a016130a5565b92509250509295509295509295565b60008083601f8401126131c5576131c4612e1a565b5b8235905067ffffffffffffffff8111156131e2576131e1612fef565b5b6020830191508360018202830111156131fe576131fd612ff4565b5b9250929050565b6000806020838503121561321c5761321b612bb6565b5b600083013567ffffffffffffffff81111561323a57613239612bbb565b5b613246858286016131af565b92509250509250929050565b6000806000806060858703121561326c5761326b612bb6565b5b600061327a87828801612c09565b945050602061328b87828801612c35565b935050604085013567ffffffffffffffff8111156132ac576132ab612bbb565b5b6132b8878288016131af565b925092505092959194509250565b600080604083850312156132dd576132dc612bb6565b5b60006132eb85828601612c09565b92505060206132fc85828601612c09565b9150509250929050565b60008060006040848603121561331f5761331e612bb6565b5b600061332d86828701612c09565b935050602084013567ffffffffffffffff81111561334e5761334d612bbb565b5b61335a868287016131af565b92509250509250925092565b61336f81612c8a565b811461337a57600080fd5b50565b60008135905061338c81613366565b92915050565b6000602082840312156133a8576133a7612bb6565b5b60006133b68482850161337d565b91505092915050565b7f4e487b7100000000000000000000000000000000000000000000000000000000600052602260045260246000fd5b6000600282049050600182168061340657607f821691505b602082108103613419576134186133bf565b5b50919050565b7f47436f696e3a2062656c6f77206d696e696d756d2072656465656d0000000000600082015250565b6000613455601b83612ad1565b91506134608261341f565b602082019050919050565b6000602082019050818103600083015261348481613448565b9050919050565b7f47436f696e3a207573657220626c61636b6c6973746564000000000000000000600082015250565b60006134c1601783612ad1565b91506134cc8261348b565b602082019050919050565b600060208201905081810360008301526134f0816134b4565b9050919050565b7f47436f696e3a20696e73756666696369656e742062616c616e63650000000000600082015250565b600061352d601b83612ad1565b9150613538826134f7565b602082019050919050565b6000602082019050818103600083015261355c81613520565b9050919050565b7f47436f696e3a2072656465656d20616c72656164792070726f63657373656400600082015250565b6000613599601f83612ad1565b91506135a482613563565b602082019050919050565b600060208201905081810360008301526135c88161358c565b9050919050565b7f47436f696e3a204b5943206e6f74207665726966696564000000000000000000600082015250565b6000613605601783612ad1565b9150613610826135cf565b602082019050919050565b60006020820190508181036000830152613634816135f8565b9050919050565b61364481612cc0565b82525050565b600060408201905061365f6000830185612b82565b61366c602083018461363b565b9392505050565b7f4e487b7100000000000000000000000000000000000000000000000000000000600052601160045260246000fd5b60006136ad82612b78565b91506136b883612b78565b92508282019050808211156136d0576136cf613673565b5b92915050565b7f47436f696e3a206d696e206d757374206265203e203000000000000000000000600082015250565b600061370c601683612ad1565b9150613717826136d6565b602082019050919050565b6000602082019050818103600083015261373b816136ff565b9050919050565b7f47436f696e3a2063616e206f6e6c7920696e63726561736520737570706c792060008201527f6361700000000000000000000000000000000000000000000000000000000000602082015250565b600061379e602383612ad1565b91506137a982613742565b604082019050919050565b600060208201905081810360008301526137cd81613791565b9050919050565b7f47436f696e3a2065786365656473206162736f6c757465206361700000000000600082015250565b600061380a601b83612ad1565b9150613815826137d4565b602082019050919050565b60006020820190508181036000830152613839816137fd565b9050919050565b7f47436f696e3a206172726179206c656e677468206d69736d6174636800000000600082015250565b6000613876601c83612ad1565b915061388182613840565b602082019050919050565b600060208201905081810360008301526138a581613869565b9050919050565b7f47436f696e3a206d617820313030207065722062617463680000000000000000600082015250565b60006138e2601883612ad1565b91506138ed826138ac565b602082019050919050565b60006020820190508181036000830152613911816138d5565b9050919050565b7f4e487b7100000000000000000000000000000000000000000000000000000000600052603260045260246000fd5b600061395282612b78565b91507fffffffffffffffffffffffffffffffffffffffffffffffffffffffffffffffff820361398457613983613673565b5b600182019050919050565b7f47436f696e3a206d617820737570706c79206578636565646564000000000000600082015250565b60006139c5601a83612ad1565b91506139d08261398f565b602082019050919050565b600060208201905081810360008301526139f4816139b8565b9050919050565b7f47436f696e3a20696e76616c6964206164647265737300000000000000000000600082015250565b6000613a31601683612ad1565b9150613a3c826139fb565b602082019050919050565b60006020820190508181036000830152613a6081613a24565b9050919050565b7f47436f696e3a20616d6f756e74206d757374206265203e203000000000000000600082015250565b6000613a9d601983612ad1565b9150613aa882613a67565b602082019050919050565b60006020820190508181036000830152613acc81613a90565b9050919050565b7f47436f696e3a20726563697069656e7420626c61636b6c697374656400000000600082015250565b6000613b09601c83612ad1565b9150613b1482613ad3565b602082019050919050565b60006020820190508181036000830152613b3881613afc565b9050919050565b600080fd5b600080fd5b600080fd5b60008083356001602003843603038112613b6b57613b6a613b3f565b5b80840192508235915067ffffffffffffffff821115613b8d57613b8c613b44565b5b602083019250600182023603831315613ba957613ba8613b49565b5b509250929050565b600081905092915050565b6000613bc88385613bb1565b9350613bd5838584612ed0565b82840190509392505050565b6000613bee828486613bbc565b91508190509392505050565b7f47436f696e3a206f7264657220616c72656164792070726f6365737365640000600082015250565b6000613c30601e83612ad1565b9150613c3b82613bfa565b602082019050919050565b60006020820190508181036000830152613c5f81613c23565b9050919050565b7f47436f696e3a20726563697069656e74204b5943206e6f74207665726966696560008201527f6400000000000000000000000000000000000000000000000000000000000000602082015250565b6000613cc2602183612ad1565b9150613ccd82613c66565b604082019050919050565b60006020820190508181036000830152613cf181613cb5565b9050919050565b6000613d048385612ad1565b9350613d11838584612ed0565b613d1a83612b0c565b840190509392505050565b6000604082019050613d3a6000830186612b82565b8181036020830152613d4d818486613cf8565b9050949350505050565b7f45524332303a2064656372656173656420616c6c6f77616e63652062656c6f7760008201527f207a65726f000000000000000000000000000000000000000000000000000000602082015250565b6000613db3602583612ad1565b9150613dbe82613d57565b604082019050919050565b60006020820190508181036000830152613de281613da6565b9050919050565b7f4e487b7100000000000000000000000000000000000000000000000000000000600052601260045260246000fd5b6000613e2382612b78565b9150613e2e83612b78565b925082613e3e57613e3d613de9565b5b828204905092915050565b6000613e5482612b78565b9150613e5f83612b78565b9250828203905081811115613e7757613e76613673565b5b92915050565b60006020820190508181036000830152613e98818486613cf8565b90509392505050565b7f4f776e61626c653a206e6577206f776e657220697320746865207a65726f206160008201527f6464726573730000000000000000000000000000000000000000000000000000602082015250565b6000613efd602683612ad1565b9150613f0882613ea1565b604082019050919050565b60006020820190508181036000830152613f2c81613ef0565b9050919050565b7f45524332303a20617070726f76652066726f6d20746865207a65726f2061646460008201527f7265737300000000000000000000000000000000000000000000000000000000602082015250565b6000613f8f602483612ad1565b9150613f9a82613f33565b604082019050919050565b60006020820190508181036000830152613fbe81613f82565b9050919050565b7f45524332303a20617070726f766520746f20746865207a65726f20616464726560008201527f7373000000000000000000000000000000000000000000000000000000000000602082015250565b6000614021602283612ad1565b915061402c82613fc5565b604082019050919050565b6000602082019050818103600083015261405081614014565b9050919050565b7f4f776e61626c653a2063616c6c6572206973206e6f7420746865206f776e6572600082015250565b600061408d602083612ad1565b915061409882614057565b602082019050919050565b600060208201905081810360008301526140bc81614080565b9050919050565b7f45524332303a206275726e2066726f6d20746865207a65726f2061646472657360008201527f7300000000000000000000000000000000000000000000000000000000000000602082015250565b600061411f602183612ad1565b915061412a826140c3565b604082019050919050565b6000602082019050818103600083015261414e81614112565b9050919050565b7f45524332303a206275726e20616d6f756e7420657863656564732062616c616e60008201527f6365000000000000000000000000000000000000000000000000000000000000602082015250565b60006141b1602283612ad1565b91506141bc82614155565b604082019050919050565b600060208201905081810360008301526141e0816141a4565b9050919050565b7f45524332303a20696e73756666696369656e7420616c6c6f77616e6365000000600082015250565b600061421d601d83612ad1565b9150614228826141e7565b602082019050919050565b6000602082019050818103600083015261424c81614210565b9050919050565b7f45524332303a207472616e736665722066726f6d20746865207a65726f20616460008201527f6472657373000000000000000000000000000000000000000000000000000000602082015250565b60006142af602583612ad1565b91506142ba82614253565b604082019050919050565b600060208201905081810360008301526142de816142a2565b9050919050565b7f45524332303a207472616e7366657220746f20746865207a65726f206164647260008201527f6573730000000000000000000000000000000000000000000000000000000000602082015250565b6000614341602383612ad1565b915061434c826142e5565b604082019050919050565b6000602082019050818103600083015261437081614334565b9050919050565b7f45524332303a207472616e7366657220616d6f756e742065786365656473206260008201527f616c616e63650000000000000000000000000000000000000000000000000000602082015250565b60006143d3602683612ad1565b91506143de82614377565b604082019050919050565b60006020820190508181036000830152614402816143c6565b9050919050565b7f45524332303a206d696e7420746f20746865207a65726f206164647265737300600082015250565b600061443f601f83612ad1565b915061444a82614409565b602082019050919050565b6000602082019050818103600083015261446e81614432565b9050919050565b7f47436f696e3a2073656e64657220626c61636b6c697374656400000000000000600082015250565b60006144ab601983612ad1565b91506144b682614475565b602082019050919050565b600060208201905081810360008301526144da8161449e565b9050919050565b7f47436f696e3a20726563656976657220626c61636b6c69737465640000000000600082015250565b6000614517601b83612ad1565b9150614522826144e1565b602082019050919050565b600060208201905081810360008301526145468161450a565b9050919050565b7f5061757361626c653a206e6f7420706175736564000000000000000000000000600082015250565b6000614583601483612ad1565b915061458e8261454d565b602082019050919050565b600060208201905081810360008301526145b281614576565b9050919050565b7f5061757361626c653a2070617573656400000000000000000000000000000000600082015250565b60006145ef601083612ad1565b91506145fa826145b9565b602082019050919050565b6000602082019050818103600083015261461e816145e2565b905091905056fea26469706673582212208879f4839e63676adc77672f52401f9d3c15713e9b51bc66518ce91f9b03456664736f6c63430008140033",
  "linkReferences": {},
  "deployedLinkReferences": {}
}